:100000009DEF02F08E0E006E1BC001F01AC002F0D0
:10001000036A1BAE05D0011E021E022A01E1012A5D
:10002000015209E102C001F0026A080E005E0152AD
:1000300002E1006A0AD0D89001BE04D0023601362F
:100040000006F9D71BBE01D0019E12001A50D8B489
:10005000A5D0266E1E50D8B4A1D0265E05E37F0E33
:100060002626D8B09BD006D0810E265ED8A096D08A
:10007000D8B494D026C000F0016A026A036A256AE7
:100080001BC024F0248E1CC023F01DC022F0190ECA
:10009000266E2150225E0DE2010E235E0AE2245EEE
:1000A00008E2255E06E2252A242A232A2150222658
:1000B00028D02050235E12E2010E245E0FE2255E5E
:1000C0000DE2252A242A205023262150222619E336
:1000D000232A17E1242A15E1252A13D01F5080096D
:1000E000245E0EE2010E255E0BE2252A1F508009D8
:1000F000242620502326E9E3242AE7E1252AE5D710
:100100000380262E01D00BD0D890223623362436F9
:100110002536D8900336023601362736BAD727A0BF
:1001200006D0D890013202320332273202D00006C4
:1001300035E027BE1ED0D890223623362436253609
:100140002150225E07E2010E235E04E2245E02E2F9
:10015000255E1AE32050235E05E2010E245E02E2D2
:10016000255E12E31F508009245E03E2010E255E26
:100170000BE3032A09E1022A07E1012A05E1002A2B
:100180000DE00132023203321BC026F01F50261A46
:1001900026AE02D0018E06D0019E04D0006A016A0C
:1001A000026A036A12001A50D8B471D0006E1E5051
:1001B000D8B46DD0002604E3810E002668E204D096
:1001C0007F0E005E64E363E01BC022F01F50221A22
:1001D0001B8E1F8E1D502102F4CF24F01C502002D4
:1001E000F4CF03F0F3CF23F02102F3502426F45090
:1001F0002322000E03221D502002F3502426F45027
:100200002322000E026A032202221B502102F35015
:100210002326F4500322000E02221B502002F3502A
:100220000326F4500222000E016A01221D501F0213
:10023000F3502326F4500322000E022201221C5008
:100240001F02F3500326F4500222000E01221B501D
:100250001F02F3500226F4500122002A01BE05D0ED
:1002600023360336023601360006000E23AE0AD0CE
:10027000032A02220122015005E1025003E103504A
:1002800001E1002A22BE018E22AE019E04D0006A46
:10029000016A026A036A12008E0E006E1650005E3A
:1002A00017C002F018C001F0028E005209E0D89089
:1002B000025202E1015204E002320132002EF7D76D
:1002C00017AE05D0011E021E012AD8B4022A120060
:1002D000800ED8B21F1A246A256A1BC023F01F5053
:1002E000231A1A50D8B4DCD0226E006E1E50D8B437
:1002F000E0D0225ED8B481D03DE31FC028F0288E24
:1003000020C027F021C026F0256AD8902832273255
:1003100026322532222EF8D723AE03D02480DDD01A
:10032000249022902488EA6A1D0EE96EE9D0249870
:1003300023BE0AD022A013D02832273226322532FB
:10034000002AD8B4C5D00BD028BE0CD0D890253602
:100350002636273628360006D8B4BAD0F5D7248CEE
:100360006BD0249C1BC023F01BAE02D0288EA9D0DA
:10037000289EA7D01EC022F01EC000F01A50225E98
:100380001BC028F0288E1CC027F01DC026F0256A4F
:10039000D8902832273226322532222EF8D723AEA3
:1003A00003D024829AD024922290248AEA6A210ED1
:1003B000E96EA6D0249A23BE0AD022A013D02832F8
:1003C000273226322532002AD8B482D00BD028BE5C
:1003D0000CD0D89025362636273628360006D8B4D5
:1003E00077D0F5D7248E28D0249E1FC023F01FAECF
:1003F00002D0288E66D0289E64D01FC028F0288E98
:1004000020C027F021C026F023AE04D0289E2484EB
:1004100064D02494256A2290EA6A1D0EE96E70D099
:1004200023BE1CD01BC023F022A006D028322732C6
:1004300026322532002A4CE025AE0BD0262A09E1CF
:10044000272A07E1282A05E1283227322632002A06
:100450003FE024BC86D724BEC7D71CD0800E281A04
:1004600028AE04D03AD01FC023F00AD01BC023F01E
:10047000285206E1275204E1265202E1006A21D007
:1004800028BE08D0D8902536263627362836002EA6
:10049000F7D71ED023AE02D0288E13D0289E11D0BD
:1004A0001EC000F01FC028F020C027F021C026F099
:1004B00008D01AC000F01BC028F01CC027F01DC0D7
:1004C00026F028C001F027C002F026C003F034D087
:1004D000006A016A026A036A2FD0256A261E271E57
:1004E000281E251E252A05E1262A03E1272A01E1E7
:1004F000282A24B015D724B256D724B48AD7B3D724
:10050000EF50262605E3272A03E1282AD8B42280C3
:10051000ED52EF50272603E3282AD8B42280ED526B
:10052000EF50EFBE01D0800A2826D8B0228024B830
:10053000FED624BA3FD774D71200F86AD09EC150B5
:10054000C00B0F09C16E070EB46E046A056AC15074
:10055000C00B0D09C16EC050C00B3F09C06EC08EEC
:10056000C280850ECD6E000E0609CA6E9B0ECB6E44
:1005700094948B940C0EBD6EB76AB66A0B6A0A6AC5
:100580000D6A0C6A0F6A0E6A116A106A136A126A9F
:10059000156A146A000E016EC250C30B0110C26EC0
:1005A000520E006E002EFED700D00000C282C2B2F2
:1005B000FED7C3CF0AF0C4CF0BF0CD0E0A5C006E9D
:1005C000000E0B58036E00C01AF01B6E1BDD03C03B
:1005D00019F002C018F001C017F000C016F003C0F7
:1005E0001DF002C01CF001C01BF000C01AF0216A0F
:1005F000800E206E4C0E1F6E870E1E6E27DD1D6A4C
:100600001C6A480E1B6E850E1A6E03C021F002C0D4
:1006100020F001C01FF000C01EF0C5DD03C019F0BE
:1006200002C018F001C017F000C016F035DE02C09D
:100630000BF001C00AF0040E016EC250C30B011092
:10064000C26E520E006E002EFED700D00000C28295
:10065000C2B2FED7C3CF0CF0C4CF0DF0CD0E0C5CF0
:10066000006E000E0D58036E00C01AF01B6ECADC3F
:1006700003C019F002C018F001C017F000C016F056
:1006800003C01DF002C01CF001C01BF000C01AF036
:10069000216A800E206E4C0E1F6E870E1E6ED6DCF9
:1006A0001D6A1C6A480E1B6E850E1A6E03C021F06F
:1006B00002C020F001C01FF000C01EF074DD03C0B6
:1006C00019F002C018F001C017F000C016F0E4DD08
:1006D00002C00DF001C00CF00A500C5C0E6E0B5005
:1006E0000D580F6E11C003F0105011AE08D0000E5F
:1006F000D8801054006E000E1154036E0050166E18
:1007000003C017F003BE07D017503E0808E303E10B
:1007100016507F0804E30E5010260F5011220FC010
:100720001BF00EC01AF06EDC1D6A1C6A400E1B6EB8
:10073000820E1A6E03C021F002C020F001C01FF02B
:1007400000C01EF030DD03C019F002C018F001C077
:1007500017F000C016F011C01BF010C01AF052DCE8
:10076000CD0E1D6ECC0E1C6E4C0E1B6E7B0E1A6ECB
:1007700003C021F002C020F001C01FF000C01EF035
:1007800012DDD89219C01DF018C01CF017C01BF064
:1007900016C01AF003C021F002C020F001C01FF003
:1007A00000C01EF095DD03C019F002C018F001C0B2
:1007B00017F000C016F012500E5C006E13500F5868
:1007C000036E00C01AF01B6E1DDC1D6A1C6A200E31
:1007D0001B6E840E1A6E03C021F002C020F001C00F
:1007E0001FF000C01EF0DFDCD89219C01DF018C049
:1007F0001CF017C01BF016C01AF003C021F002C095
:1008000020F001C01FF000C01EF062DD03C019F02F
:1008100002C018F001C017F000C016F03DDD02C0A4
:1008200015F001C014F015BE09D0155203E11450A3
:10083000640804E2156A640E146E04D015AE02D08A
:10084000156A146A15C01BF014C01AF002EC00F00F
:1008500003C019F002C018F001C017F000C016F074
:1008600003C01DF002C01CF001C01BF000C01AF054
:10087000216A206A480E1F6E850E1E6E26EC00F05F
:100880001D6A400E1C6E1B0E1B6E880E1A6E03C076
:1008900021F002C020F001C01FF000C01EF083DC78
:1008A00003C019F002C018F001C017F000C016F024
:1008B000F3DC02C015F001C014F015C002F014C042
:1008C00001F00232013202320132023201C0BEFFB7
:1008D00002320230300B006EBD50CF0B0010BD6EE7
:0C08E0000FC013F00EC012F055D603003C
:020000040030CA
:0E00000004CC380E0007A1000FC00FE00F4027
:00000001FF
;PIC18F4550
;CRC=00C4  CREATED="10-ago-15 16:18"
